:100000000C942A000C9447000C9447000C94470071
:100010000C94580D0C94ED0C0C9447000C94470074
:100020000C9447000C9447000C94A7090C943C09CD
:100030000C9447000C9447000C9447000C94470024
:100040000C9447000C9447000C9447000C94470014
:100050000C94470011241FBECFE5D8E0DEBFCDBF12
:1000600012E0A0E6B0E0E4EDF8E302C005900D92E6
:10007000A831B107D9F712E0A8E1B2E001C01D92A2
:10008000AF33B107E1F70E94CB190C94681C0C94B4
:100090000000EF92FF920F931F937B018C0120E0F1
:1000A00030E040E05FE40E94F50388238CF0C80153
:1000B000B70120E030E040E05FE40E94C1010E940F
:1000C00085049B01AC01205030404040504806C0A0
:1000D000C801B7010E9485049B01AC01B901CA01A6
:1000E0001F910F91FF90EF900895A0E0B0E0EBE733
:1000F000F0E00C94311CDC012B01FA019C91923050
:1001000008F439C1EB018881823008F433C194309E
:1001100069F4843009F02FC111969C91119789815F
:10012000981709F428C1A8EFB0E025C1843009F47C
:1001300021C18230A9F4923009F01DC19A01AD01AC
:1001400088E0EA010990AE01E90109929E0181501F
:10015000C1F7E201898111969C918923818308C1AD
:10016000923009F407C112962D903C901397EB0141
:100170008A819B811496AD90BD90CD90DC901797AD
:10018000EC80FD800E811F819101281B390BB90184
:1001900037FF04C066277727621B730B6032710537
:1001A0000CF061C0121613066CF537014801062EDB
:1001B00004C096948794779467940A94D2F721E0C8
:1001C00030E040E050E004C0220F331F441F551FB1
:1001D0006A95D2F721503040404050402E213F21B7
:1001E00040235123211531054105510521F021E01E
:1001F00030E040E050E079018A01E628F72808293C
:1002000019293CC0232BD1F1260E371E350146019A
:10021000062E04C096948794779467940A94D2F734
:1002200021E030E040E050E004C0220F331F441FC3
:10023000551F6A95D2F721503040404050402A2146
:100240003B214C215D21211531054105510521F04E
:1002500021E030E040E050E059016A01A628B728CB
:10026000C828D9280BC0821593052CF01C01AA249C
:10027000BB24650103C0EE24FF24870111969C91E5
:10028000D20111968C91981709F445C0992339F041
:10029000A80197012A193B094C095D0906C0A6016E
:1002A00095012E193F09400B510B57FD08C01182D3
:1002B0003382228224833583468357831DC081E0A5
:1002C00081833382228288279927DC01821B930B4A
:1002D000A40BB50B84839583A683B7830DC0220F2F
:1002E000331F441F551F24833583468357838281E0
:1002F000938101979383828324813581468157813D
:10030000DA01C9010197A109B1098F5F9F4FAF4F72
:10031000BF4328F30BC0918333822282EA0CFB1C7B
:100320000C1D1D1DE482F5820683178383E0808304
:10033000248135814681578157FF1AC0C901AA27F8
:1003400097FDA095BA2F81709070A070B0705695EF
:10035000479537952795822B932BA42BB52B848318
:100360009583A683B7838281938101969383828349
:10037000DF0101C0D201CD01CDB7DEB7E2E10C94BF
:100380004D1CA0E2B0E0E7ECF1E00C943D1C698369
:100390007A838B839C832D833E834F835887E9E048
:1003A000EE2EF12CEC0EFD1ECE010196B7010E943F
:1003B00076068E010F5E1F4FCE010596B8010E9492
:1003C00076068A8991E089278A8BC701B801AE0138
:1003D000475E5F4F0E9475000E94A105A096E6E06F
:1003E0000C94591CA0E2B0E0E8EFF1E00C943D1C45
:1003F00069837A838B839C832D833E834F835887C5
:10040000F9E0EF2EF12CEC0EFD1ECE010196B701A6
:100410000E9476068E010F5E1F4FCE010596B80131
:100420000E947606C701B801AE01475E5F4F0E9489
:1004300075000E94A105A096E6E00C94591CA0E26C
:10044000B0E0E5E2F2E00C94311C69837A838B839F
:100450009C832D833E834F835887CE010196BE0136
:10046000675F7F4F0E947606CE010596BE016F5EE4
:100470007F4F0E9476069985923088F08989823074
:10048000C8F0943019F4823051F404C0843029F457
:10049000923081F488EF90E0C6C0923049F420E0B9
:1004A0009A858A89981321E02A87CE010996BBC0D4
:1004B000823049F420E09A858A89981321E02A8BBA
:1004C000CE014196B0C02D843E844F8458886D88FB
:1004D0007E888F88988CEE24FF248701AA24BB2471
:1004E000650140E050E060E070E0E0E0F0E0C10174
:1004F00081709070892BE9F0E60CF71C081D191D1E
:100500009A01AB012A0D3B1D4C1D5D1D80E090E062
:10051000A0E0B0E0E614F7040805190520F481E036
:1005200090E0A0E0B0E0BA01A901480F591F6A1F8E
:100530007B1FAA0CBB1CCC1CDD1C97FE08C081E0F5
:1005400090E0A0E0B0E0A82AB92ACA2ADB2A3196B6
:10055000E032F10549F0660C771C881C991C569412
:10056000479437942794C3CFFA85EA892B893C892D
:100570008B859C85280F391F2E5F3F4F17C0CA01FE
:1005800081709070892B61F016950795F794E79428
:1005900080E090E0A0E0B0E8E82AF92A0A2B1B2BC3
:1005A00076956795579547952F5F3F4F77FDE7CF36
:1005B0000CC0440F551F661F771F17FD4160EE0CDE
:1005C000FF1C001F111F21503040403090E05907A0
:1005D00090E0690790E4790760F32B8F3C8FDB0193
:1005E000CA018F779070A070B07080349105A1051A
:1005F000B10561F447FD0AC0E114F10401051105DC
:1006000029F0405C5F4F6F4F7F4F40781A8EFE1786
:1006100011F081E08A8F4D8F5E8F6F8F78A383E01A
:10062000898FCE0149960E94A105A096E2E10C9423
:100630004D1CA8E1B0E0EFE1F3E00C94391C6983B4
:100640007A838B839C832D833E834F835887B9E0C5
:10065000EB2EF12CEC0EFD1ECE010196B7010E948F
:1006600076068E010F5E1F4FCE010596B8010E94DF
:1006700076062985223008F47EC03989323010F49C
:10068000B8017CC08A859A8989278A87243011F02D
:10069000223031F4231709F06EC068EF70E06EC0AD
:1006A000343039F41D861E861F86188A1C861B86E8
:1006B00004C0323021F484E08987B7015FC02B8504
:1006C0003C858B899C89281B390B3C872B87ED84C3
:1006D000FE840F851889AD88BE88CF88D88CEA142F
:1006E000FB040C051D0540F4EE0CFF1C001F111F40
:1006F000215030403C872B8720E030E040E050E044
:1007000080E090E0A0E0B0E460E070E0EA14FB0478
:100710000C051D0540F0282B392B4A2B5B2BEA18C2
:10072000FB080C091D09B695A79597958795EE0CC2
:10073000FF1C001F111F6F5F7F4F6F31710531F775
:10074000DA01C9018F779070A070B0708034910584
:10075000A105B10561F427FD0AC0E114F10401050A
:10076000110529F0205C3F4F4F4F5F4F20782D87B8
:100770003E874F87588BBE01675F7F4FCB010E943A
:10078000A1056896EAE00C94551CA8E1B0E0EBECFA
:10079000F3E00C943D1C69837A838B839C832D83C7
:1007A0003E834F83588789E0E82EF12CEC0EFD1E26
:1007B000CE010196B7010E9476068E010F5E1F4F93
:1007C000CE010596B8010E9476068985823040F0F8
:1007D0008989823028F0C701B8010E94EE0601C065
:1007E0008FEF6896E6E00C94591CA8E1B0E0EBEFBF
:1007F000F3E00C943D1C69837A838B839C832D8367
:100800003E834F83588789E0E82EF12CEC0EFD1EC5
:10081000CE010196B7010E9476068E010F5E1F4F32
:10082000CE010596B8010E9476068985823040F097
:100830008989823028F0C701B8010E94EE0601C004
:100840008FEF6896E6E00C94591CA8E1B0E0EBE26B
:10085000F4E00C943D1C69837A838B839C832D8305
:100860003E834F83588789E0E82EF12CEC0EFD1E65
:10087000CE010196B7010E9476068E010F5E1F4FD2
:10088000CE010596B8010E9476068985823040F037
:100890008989823028F0C701B8010E94EE0601C0A4
:1008A00081E06896E6E00C94591CA8E1B0E0EBE525
:1008B000F4E00C943D1C69837A838B839C832D83A5
:1008C0003E834F83588789E0E82EF12CEC0EFD1E05
:1008D000CE010196B7010E9476068E010F5E1F4F72
:1008E000CE010596B8010E9476068985823040F0D7
:1008F0008989823028F0C701B8010E94EE0601C044
:1009000081E06896E6E00C94591CACE0B0E0EBE8BE
:10091000F4E00C94411C69837A838B839C83CE0121
:100920000196BE016B5F7F4F0E9476068D818230FB
:1009300061F1823050F1843021F48E81882351F1AD
:100940002EC02F81388537FD20C06E812F313105B3
:100950001CF06623F9F023C08EE190E0821B930B1C
:1009600029853A854B855C8504C056954795379512
:1009700027958A95D2F76623B1F05095409530952A
:1009800021953F4F4F4F5F4F0EC020E030E040E0D9
:1009900050E009C02FEF3FEF4FEF5FE704C020E0CA
:1009A00030E040E050E8B901CA012C96E2E00C9436
:1009B0005D1CA8E0B0E0EFEDF4E00C94391C7B0185
:1009C0008C01611571058105910519F482E0898317
:1009D00060C083E089838EE1C82ED12CDC82CB827B
:1009E000ED82FE820F831887C801B7010E9452056D
:1009F000FC013197F7FF3BC0222733272E1B3F0B0B
:100A000057016801022E04C0D694C794B794A794E6
:100A10000A94D2F740E050E060E070E081E090E0BE
:100A2000A0E0B0E004C0880F991FAA1FBB1F2A9541
:100A3000D2F70197A109B1098E219F21A023B123EB
:100A40000097A105B10521F041E050E060E070E0C1
:100A50004A295B296C297D294D835E836F837887C2
:100A60008EE190E08E1B9F0B9C838B8312C030978E
:100A700081F00E2E04C0EE0CFF1C001F111F0A9403
:100A8000D2F7ED82FE820F831887CE1ADF0ADC824E
:100A9000CB821A82CE0101960E94A1052896EAE037
:100AA0000C94551CEF92FF920F931F937B018C01C6
:100AB00080E0E81680E0F80681E0080780E018078B
:100AC00088F48FEFE816F1040105110531F028F0E4
:100AD00088E090E0A0E0B0E017C080E090E0A0E007
:100AE000B0E012C080E0E81680E0F80680E0080779
:100AF00081E0180728F088E190E0A0E0B0E004C0B1
:100B000080E190E0A0E0B0E020E230E040E050E0A2
:100B1000281B390B4A0B5B0B04C016950795F794FD
:100B2000E7948A95D2F7F701E050FF4F8081281BA8
:100B3000310941095109C9011F910F91FF90EF90AF
:100B40000895DF92EF92FF920F931F93FC01E480D0
:100B5000F58006811781D1808081823048F480E061
:100B600090E0A0E1B0E0E82AF92A0A2B1B2BA5C0EF
:100B7000843009F49FC0823021F4EE24FF248701E1
:100B800005C0E114F1040105110519F4E0E0F0E0FD
:100B900096C0628173819FEF623879070CF05BC069
:100BA00022E83FEF261B370B2A3131052CF020E0DD
:100BB00030E040E050E02AC0B801A701022E04C096
:100BC00076956795579547950A94D2F781E090E01E
:100BD000A0E0B0E004C0880F991FAA1FBB1F2A9590
:100BE000D2F70197A109B1098E219F21A023B1233A
:100BF0000097A105B10521F081E090E0A0E0B0E010
:100C00009A01AB01282B392B4A2B5B2BDA01C90146
:100C10008F779070A070B07080349105A105B105F8
:100C200039F427FF09C0205C3F4F4F4F5F4F04C08E
:100C3000215C3F4F4F4F5F4FE0E0F0E02030A0E0FD
:100C40003A07A0E04A07A0E45A0710F0E1E0F0E01C
:100C500079018A0127C06038710564F5FB01E1580C
:100C6000FF4FD801C7018F779070A070B0708034AB
:100C70009105A105B10539F4E7FE0DC080E490E0CF
:100C8000A0E0B0E004C08FE390E0A0E0B0E0E80EA8
:100C9000F91E0A1F1B1F17FF05C016950795F7942D
:100CA000E794319687E016950795F794E7948A952F
:100CB000D1F705C0EE24FF248701EFEFF0E06E2F9F
:100CC000679566276795902F9F77D794DD24D794F3
:100CD0008E2F8695492F462B582F5D29B701CA01C3
:100CE0001F910F91FF90EF90DF900895FC01DB01C1
:100CF000408151812281622F6F7770E0221F22276D
:100D0000221F9381892F880F822B282F30E0991F73
:100D10009927991F11969C93119721153105A9F5D3
:100D2000411551056105710511F482E037C082E873
:100D30009FEF13969C938E9312979A01AB0167E0F5
:100D4000220F331F441F551F6A95D1F783E08C9300
:100D50000DC0220F331F441F551F12968D919C9179
:100D60001397019713969C938E931297203080E0EF
:100D7000380780E0480780E4580758F314962D930D
:100D80003D934D935C93179708952F3F310579F468
:100D9000411551056105710519F484E08C9308959E
:100DA00064FF03C081E08C9312C01C9210C02F57C7
:100DB000304013963C932E93129783E08C9387E0F8
:100DC000440F551F661F771F8A95D1F770641496DC
:100DD0004D935D936D937C93179708951F93DC015A
:100DE000FB019C91923008F447C08081823008F466
:100DF00043C0943051F411961C91843099F581814F
:100E0000682F70E0611B71093FC0843021F092307F
:100E100031F48230B9F18181882389F12DC0119696
:100E20001C9111978230F1F081811817D9F4129634
:100E30002D913C911397828193818217930794F0AF
:100E400028173907BCF014968D919D910D90BC9197
:100E5000A02D2481358146815781281739074A07FB
:100E60005B0718F4112341F00AC082179307A40707
:100E7000B50740F4112319F061E070E005C06FEF91
:100E80007FEF02C060E070E0CB011F910895DF9317
:100E9000CF93CDB7DEB7A3E5B0E0E3E5F0E0808126
:100EA0008F7B8C93A3E5B0E0E3E5F0E08081877F62
:100EB0008C93A9E5B0E0E9E5F0E0808181608C9356
:100EC000A3E5B0E0E3E5F0E08081887F84608C9367
:100ED000CF91DF910895EF92FF920F931F93DF93CD
:100EE000CF93CDB7DEB761970FB6F894DEBF0FBED4
:100EF000CDBF6E877F87888B998B109235020E94B9
:100F0000470780E090E0A0E0BEE38A879B87AC873C
:100F1000BD876A857B858C859D8520E030E040E833
:100F200053E40E941F02DC01CB01BC01CD0120E093
:100F300030E040E853E40E941F02DC01CB018A87C5
:100F40009B87AC87BD878E859F85A889B98928EE48
:100F500033E040E050E0BC01CD010E94C91BDC0140
:100F6000CB01BC01CD010E94D904DC01CB01BC0145
:100F7000CD012A853B854C855D850E945504181658
:100F80000CF449C06E857F85888999890E94D904AF
:100F90007B018C016A857B858C859D8520E030E016
:100FA0004AE754E40E941903DC01CB019C01AD0126
:100FB000C801B7010E941903DC01CB018E839F8316
:100FC000A887B9876E817F818885998520E030E088
:100FD00040E853E40E941F02DC01CB01BC01CD01BB
:100FE0000E944900DC01CB01898381E090E0A0E010
:100FF000B0E08093310290933202A0933302B09319
:1010000034028981819580933002E2E5F0E080919D
:10101000300280837FC06E857F85888999890E9490
:10102000D9047B018C016A857B858C859D8520E0B8
:1010300030E04AE754E40E941903DC01CB019C0133
:10104000AD01C801B7010E941903DC01CB018E83F9
:101050009F83A887B9876E857F85888999890E9433
:10106000D9047B018C016A857B858C859D8520E078
:1010700030E04AE754E40E941903DC01CB019C01F3
:10108000AD01C801B7010E941903DC01CB01BC010D
:10109000CD010E944900DC01CB018A839B83AC8394
:1010A000BD836A817B818C819D810E94D9049B01D3
:1010B000AC016E817F81888599850E94C101DC0128
:1010C000CB01BC01CD0120E030E040E853E40E94B8
:1010D0001F02DC01CB01BC01CD010E944900DC01F3
:1010E000CB0189838A819B81AC81BD810196A11D41
:1010F000B11D8093310290933202A0933302B093DA
:1011000034028981819580933002E2E5F0E080919C
:1011100030028083E8E5F0E08081882F90E08170E4
:101120009070009721F480913502882399F361969D
:101130000FB6F894DEBF0FBECDBFCF91DF911F91E8
:101140000F91FF90EF900895DF93CF9300D0CDB72C
:10115000DEB79A83898389819A819093190280935B
:1011600018020F900F90CF91DF910895DF93CF93E6
:10117000CDB7DEB7A3E5B0E0E3E5F0E080818F7B9B
:101180008C93A3E5B0E0E3E5F0E0808188608C9388
:10119000A9E5B0E0E9E5F0E0808182608C93A3E509
:1011A000B0E0E3E5F0E08081887F84608C93CF91AC
:1011B000DF910895DF93CF9300D000D00F92CDB789
:1011C000DEB789834A835B836C837D83109235020B
:1011D0008A819B81AC81BD818093310290933202E0
:1011E000A0933302B09334028A819B81AC81BD818C
:1011F00081309105A105B10529F4ECE5F0E0898184
:10120000808310C08A819B81AC81BD818230910531
:10121000A105B10538F0898180933002ECE5F0E05A
:101220008FEF80830E94B608E8E5F0E08081869524
:10123000882F90E081709070009721F480913502A2
:10124000882391F30F900F900F900F900F90CF91F4
:10125000DF910895DF93CF9300D0CDB7DEB79A83A7
:10126000898389819A8190931B0280931A020F903F
:101270000F90CF91DF9108951F920F920FB60F92AA
:1012800011242F933F934F935F936F937F938F938B
:101290009F93AF93BF93EF93FF93DF93CF93CDB71C
:1012A000DEB78091200290912102A0912202B0919C
:1012B00023020196A11DB11D80932002909321026B
:1012C000A0932202B09323022091200230912102A8
:1012D000409122025091230280913102909132027A
:1012E000A0913302B0913402281739074A075B07EF
:1012F000D9F4109220021092210210922202109230
:101300002302E2E5F0E080913002808380911802B0
:1013100090911902009729F0E0911802F0911902BA
:10132000099581E080933502CF91DF91FF91EF9194
:10133000BF91AF919F918F917F916F915F914F91ED
:101340003F912F910F900FBE0F901F9018951F92F5
:101350000F920FB60F9211242F933F934F935F93E9
:101360006F937F938F939F93AF93BF93EF93FF936D
:10137000DF93CF93CDB7DEB7809124029091250201
:10138000A0912602B09127020196A11DB11D809364
:10139000240290932502A0932602B0932702209165
:1013A00031023091320240913302509134028091E7
:1013B000240290912502A0912602B09127022817BD
:1013C00039074A075B07B9F480911A0290911B0212
:1013D000009729F0E0911A02F0911B0209951092F2
:1013E000240210922502109226021092270281E018
:1013F000809335023AC08091240290912502A091F9
:101400002602B09127029C01AD012F5F3F4F4F4F45
:101410005F4F8091310290913202A0913302B091DE
:101420003402281739074A075B0731F4ECE5F0E08E
:1014300080913002808319C02091310230913202B4
:101440004091330250913402809124029091250200
:10145000A0912602B0912702281739074A075B0797
:1014600021F0ECE5F0E08FEF8083CF91DF91FF91E9
:10147000EF91BF91AF919F918F917F916F915F910C
:101480004F913F912F910F900FBE0F901F90189585
:10149000DF93CF93CDB7DEB7A3E5B0E0E3E5F0E0AF
:1014A000808180648C93A3E5B0E0E3E5F0E0808187
:1014B00088608C93A3E5B0E0E3E5F0E08081806193
:1014C0008C93A3E5B0E0E3E5F0E0808180628C934B
:1014D000A3E5B0E0E3E5F0E08081887F84608C9351
:1014E000CF91DF910895DF93CF930F92CDB7DEB701
:1014F0008983ECE5F0E0898180830F90CF91DF91C3
:101500000895DF93CF93CDB7DEB7AFE4B0E0EFE45B
:10151000F0E080818E7F8C93AFE4B0E0EFE4F0E008
:10152000808182608C93AEE4B0E0EEE4F0E08081F4
:1015300088608C93AEE4B0E0EEE4F0E080818061FE
:101540008C93AFE4B0E0EFE4F0E080818F7B8C938C
:10155000AFE4B0E0EFE4F0E0808180688C93AEE42B
:10156000B0E0EEE4F0E08081887F81608C93E6E477
:10157000F0E08FE19EE491838083CF91DF91089525
:10158000DF93CF93CDB7DEB7A5E4B0E0E5E4F0E0BC
:1015900080818F7B8C93A5E4B0E0E5E4F0E080816E
:1015A00088608C93A9E5B0E0E9E5F0E0808180688F
:1015B0008C93A5E4B0E0E5E4F0E08081887F86606C
:1015C0008C93CF91DF910895DF93CF9300D000D01B
:1015D0000F92CDB7DEB789834A835B836C837D83AB
:1015E000109235028A819B81AC81BD81809331024A
:1015F00090933202A0933302B09334028A819B818C
:10160000AC81BD8181309105A105B10529F4E3E4E8
:10161000F0E08981808310C08A819B81AC81BD818B
:1016200082309105A105B10538F08981809330029F
:10163000E3E4F0E08FEF80830E94C00AE8E5F0E089
:101640008081882324F0809135028823B9F30F909C
:101650000F900F900F900F90CF91DF910895DF932F
:10166000CF9300D0CDB7DEB79A83898389819A81E1
:1016700090931F0280931E020F900F90CF91DF91E5
:101680000895DF93CF93CDB7DEB7A5E4B0E0E5E4EE
:10169000F0E080818F7B8C93A5E4B0E0E5E4F0E09E
:1016A0008081877F8C93A9E5B0E0E9E5F0E0808157
:1016B00080648C93A5E4B0E0E5E4F0E08081887F6D
:1016C00086608C93CF91DF910895EF92FF920F93F4
:1016D0001F93DF93CF93CDB7DEB761970FB6F89422
:1016E000DEBF0FBECDBF6E877F87888B998B109230
:1016F00035020E94410B80E090E0A0E0BEE38A87C3
:101700009B87AC87BD876A857B858C859D8520E01E
:1017100030E040E853E40E941F02DC01CB01BC0131
:10172000CD0120E030E040E853E40E941F02DC01DC
:10173000CB018A879B87AC87BD878E859F85A889CB
:10174000B98928EE33E040E050E0BC01CD010E94B1
:10175000C91BDC01CB01BC01CD010E94D904DC0115
:10176000CB01BC01CD012A853B854C855D850E945E
:10177000550418160CF449C06E857F8588899989AF
:101780000E94D9047B018C016A857B858C859D85AF
:1017900020E030E04AE754E40E941903DC01CB0169
:1017A0009C01AD01C801B7010E941903DC01CB0106
:1017B0008E839F83A887B9876E817F81888599856D
:1017C00020E030E040E853E40E941F02DC01CB013E
:1017D000BC01CD010E944900DC01CB01898381E07D
:1017E00090E0A0E0B0E08093310290933202A093A9
:1017F0003302B09334028981819580933002E4E40E
:10180000F0E08091300280837FC06E857F8588897B
:1018100099890E94D9047B018C016A857B858C851E
:101820009D8520E030E04AE754E40E941903DC0182
:10183000CB019C01AD01C801B7010E941903DC0175
:10184000CB018E839F83A887B9876E857F85888922
:1018500099890E94D9047B018C016A857B858C85DE
:101860009D8520E030E04AE754E40E941903DC0142
:10187000CB019C01AD01C801B7010E941903DC0135
:10188000CB01BC01CD010E944900DC01CB018A8360
:101890009B83AC83BD836A817B818C819D810E9407
:1018A000D9049B01AC016E817F81888599850E9456
:1018B000C101DC01CB01BC01CD0120E030E040E8FA
:1018C00053E40E941F02DC01CB01BC01CD010E9448
:1018D0004900DC01CB0189838A819B81AC81BD8178
:1018E0000196A11DB11D8093310290933202A09305
:1018F0003302B09334028981819580933002E4E40D
:10190000F0E0809130028083E8E5F0E0808182950C
:10191000869586958370882F90E0817090700097EF
:1019200021F480913502882379F361960FB6F894FB
:10193000DEBF0FBECDBFCF91DF911F910F91FF9002
:10194000EF900895DF93CF9300D0CDB7DEB79A83A1
:10195000898389819A8190931D0280931C020F9044
:101960000F90CF91DF910895DF93CF93CDB7DEB77E
:10197000A5E4B0E0E5E4F0E0808180648C93A5E428
:10198000B0E0E5E4F0E0808188608C93A5E4B0E00D
:10199000E5E4F0E080818F7E8C93A5E4B0E0E5E49F
:1019A000F0E0808180628C93A5E4B0E0E5E4F0E0B3
:1019B0008081887F86608C93CF91DF910895DF933B
:1019C000CF930F92CDB7DEB78983E3E4F0E089814E
:1019D00080830F90CF91DF9108951F920F920FB6E1
:1019E0000F9211242F933F934F935F936F937F93A5
:1019F0008F939F93AF93BF93EF93FF93DF93CF9317
:101A0000CDB7DEB78091280290912902A0912A02D9
:101A1000B0912B020196A11DB11D809328029093D5
:101A20002902A0932A02B0932B0220912802309120
:101A3000290240912A0250912B028091310290910B
:101A40003202A0913302B0913402281739074A07B5
:101A50005B07D9F4109228021092290210922A02F0
:101A600010922B02E4E4F0E08091300280838091B8
:101A70001C0290911D02009729F0E0911C02F09148
:101A80001D02099581E080933502CF91DF91FF918E
:101A9000EF91BF91AF919F918F917F916F915F91E6
:101AA0004F913F912F910F900FBE0F901F9018955F
:101AB0001F920F920FB60F9211242F933F934F93C3
:101AC0005F936F937F938F939F93AF93BF93EF93A6
:101AD000FF93DF93CF93CDB7DEB780912C02909127
:101AE0002D02A0912E02B0912F020196A11DB11DD1
:101AF00080932C0290932D02A0932E02B0932F027C
:101B000020912C0230912D0240912E0250912F02F3
:101B10008091310290913202A0913302B09134024F
:101B2000281739074A075B07B9F480911E02909184
:101B30001F02009729F0E0911E02F0911F02099503
:101B400010922C0210922D0210922E0210922F024F
:101B500081E0809335023AC0809131029091320247
:101B6000A0913302B09134029C01AD01215030406C
:101B70004040504080912C0290912D02A0912E0265
:101B8000B0912F02281739074A075B0731F4E3E4C5
:101B9000F0E080913002808319C020912C023091B6
:101BA0002D0240912E0250912F028091310290918E
:101BB0003202A0913302B0913402281739074A0744
:101BC0005B0721F0E3E4F0E08FEF8083CF91DF91BA
:101BD000FF91EF91BF91AF919F918F917F916F9105
:101BE0005F914F913F912F910F900FBE0F901F90DB
:101BF0001895DF93CF93CDB7DEB727970FB6F8943C
:101C0000DEBF0FBECDBF89836A834B838B81882360
:101C100009F074C08981282F30E03F832E838E81A4
:101C20009F818130910559F12E813F81223031050C
:101C30002CF48E819F81009769F0D2C02E813F8164
:101C40002230310589F18E819F818330910509F41D
:101C500040C0C6C0AAE3B0E0EAE3F0E08081482FCC
:101C60008A81282F30E081E090E0022E02C0880FA8
:101C7000991F0A94E2F7809584238C93B1C0A7E35F
:101C8000B0E0E7E3F0E08081482F8A81282F30E040
:101C900081E090E0022E02C0880F991F0A94E2F7BB
:101CA000809584238C939CC0A4E3B0E0E4E3F0E04F
:101CB0008081482F8A81282F30E081E090E0022E39
:101CC00002C0880F991F0A94E2F7809584238C93B1
:101CD00087C0A1E3B0E0E1E3F0E08081482F8A8192
:101CE000282F30E081E090E0022E02C0880F991F7B
:101CF0000A94E2F7809584238C9372C08B818130A3
:101D000009F06EC08981282F30E03D832C838C81BF
:101D10009D818130910549F12C813D812230310531
:101D20002CF48C819D81009761F05AC02C813D81FB
:101D30002230310571F18C819D8183309105E9F16B
:101D40004FC0AAE3B0E0EAE3F0E08081482F8A8147
:101D5000282F30E081E090E0022E02C0880F991F0A
:101D60000A94E2F7842B8C933BC0A7E3B0E0E7E34F
:101D7000F0E08081482F8A81282F30E081E090E0D8
:101D8000022E02C0880F991F0A94E2F7842B8C93CD
:101D900027C0A4E3B0E0E4E3F0E08081482F8A812B
:101DA000282F30E081E090E0022E02C0880F991FBA
:101DB0000A94E2F7842B8C9313C0A1E3B0E0E1E333
:101DC000F0E08081482F8A81282F30E081E090E088
:101DD000022E02C0880F991F0A94E2F7842B8C937D
:101DE00027960FB6F894DEBF0FBECDBFCF91DF911F
:101DF0000895DF93CF93CDB7DEB727970FB6F8944A
:101E0000DEBF0FBECDBF89836A834B838B8188235E
:101E100009F074C08981282F30E03F832E838E81A2
:101E20009F818130910559F12E813F81223031050A
:101E30002CF48E819F81009769F0D2C02E813F8162
:101E40002230310589F18E819F818330910509F41B
:101E500040C0C6C0ABE3B0E0EBE3F0E08081482FC8
:101E60008A81282F30E081E090E0022E02C0880FA6
:101E7000991F0A94E2F7809584238C93B1C0A8E35C
:101E8000B0E0E8E3F0E08081482F8A81282F30E03D
:101E900081E090E0022E02C0880F991F0A94E2F7B9
:101EA000809584238C939CC0A5E3B0E0E5E3F0E04B
:101EB0008081482F8A81282F30E081E090E0022E37
:101EC00002C0880F991F0A94E2F7809584238C93AF
:101ED00087C0A2E3B0E0E2E3F0E08081482F8A818E
:101EE000282F30E081E090E0022E02C0880F991F79
:101EF0000A94E2F7809584238C9372C08B818130A1
:101F000009F06EC08981282F30E03D832C838C81BD
:101F10009D818130910549F12C813D81223031052F
:101F20002CF48C819D81009761F05AC02C813D81F9
:101F30002230310571F18C819D8183309105E9F169
:101F40004FC0ABE3B0E0EBE3F0E08081482F8A8143
:101F5000282F30E081E090E0022E02C0880F991F08
:101F60000A94E2F7842B8C933BC0A8E3B0E0E8E34B
:101F7000F0E08081482F8A81282F30E081E090E0D6
:101F8000022E02C0880F991F0A94E2F7842B8C93CB
:101F900027C0A5E3B0E0E5E3F0E08081482F8A8127
:101FA000282F30E081E090E0022E02C0880F991FB8
:101FB0000A94E2F7842B8C9313C0A2E3B0E0E2E32F
:101FC000F0E08081482F8A81282F30E081E090E086
:101FD000022E02C0880F991F0A94E2F7842B8C937B
:101FE00027960FB6F894DEBF0FBECDBFCF91DF911D
:101FF0000895DF93CF9300D000D000D0CDB7DEB7E7
:1020000089836A838981282F30E03D832C834C812A
:102010005D814130510549F18C819D81823091056E
:1020200034F42C813D812115310561F057C04C817C
:102030005D814230510561F18C819D818330910534
:10204000D1F14CC0E9E3F0E08081282F30E08A81B3
:10205000882F90E0A90102C0559547958A95E2F72F
:10206000CA01582F51705B833AC0E6E3F0E08081EB
:10207000282F30E08A81882F90E0A90102C0559571
:1020800047958A95E2F7CA01582F51705B8327C0A4
:10209000E3E3F0E08081282F30E08A81882F90E010
:1020A000A90102C0559547958A95E2F7CA01582FB4
:1020B00051705B8314C0E0E3F0E08081282F30E0B2
:1020C0008A81882F90E0A90102C0559547958A958D
:1020D000E2F7CA01582F51705B8301C002C08B81A7
:1020E0008E838E8126960FB6F894DEBF0FBECDBFCD
:1020F000CF91DF910895DF93CF9300D000D0CDB77B
:10210000DEB789836A838981282F30E03C832B8363
:102110008B819C8181309105D1F02B813C812230D3
:1021200031052CF48B819C81009761F01EC02B81BE
:102130003C812230310581F08B819C818330910577
:1021400081F013C0EAE3F0E08A8180830EC0E7E308
:10215000F0E08A81808309C0E4E3F0E08A81808333
:1021600004C0E1E3F0E08A8180830F900F900F902C
:102170000F90CF91DF910895DF93CF9300D000D0DF
:10218000CDB7DEB789836A838981282F30E03C830D
:102190002B838B819C8181309105D1F02B813C81F7
:1021A000223031052CF48B819C81009761F01EC098
:1021B0002B813C812230310581F08B819C818330E1
:1021C000910581F013C0EBE3F0E08A8180830EC0BB
:1021D000E8E3F0E08A81808309C0E5E3F0E08A81EA
:1021E000808304C0E2E3F0E08A8180830F900F9047
:1021F0000F900F90CF91DF910895DF93CF9300D090
:1022000000D0CDB7DEB789836A838981282F30E07B
:102210003C832B838B819C818130910549F12B81FB
:102220003C81223031052CF48B819C81009761F038
:102230005AC02B813C812230310571F18B819C8108
:1022400083309105E9F14FC0ABE3B0E0EBE3F0E0A0
:102250008081482F8A81282F30E081E090E0022E93
:1022600002C0880F991F0A94E2F784278C933BC021
:10227000A8E3B0E0E8E3F0E08081482F8A81282FCE
:1022800030E081E090E0022E02C0880F991F0A948E
:10229000E2F784278C9327C0A5E3B0E0E5E3F0E004
:1022A0008081482F8A81282F30E081E090E0022E43
:1022B00002C0880F991F0A94E2F784278C9313C0F9
:1022C000A2E3B0E0E2E3F0E08081482F8A81282F8A
:1022D00030E081E090E0022E02C0880F991F0A943E
:1022E000E2F784278C930F900F900F900F90CF916F
:1022F000DF910895DF93CF93CDB7DEB7AFE4B0E0C1
:10230000EFE4F0E080818E7F8C93AFE4B0E0EFE407
:10231000F0E0808182608C93AEE4B0E0EEE4F0E027
:10232000808188608C93AEE4B0E0EEE4F0E08081E0
:1023300080618C93AFE4B0E0EFE4F0E080818F7BCC
:102340008C93AFE4B0E0EFE4F0E0808180688C93A0
:10235000E6E4F0E08FE19EE491838083AEE4B0E0B8
:10236000EEE4F0E080818E7F8C93AEE4B0E0EEE4AA
:10237000F0E0808182608C93AEE4B0E0EEE4F0E0C7
:1023800080818B7F8C9383E065E041E00E94F90DB2
:10239000CF91DF910895DF93CF930F92CDB7DEB742
:1023A0008983EAE4F0E08981282F30E082E390E03D
:1023B000AC01249FC001259F900D349F900D1124E6
:1023C000815E9C4D29E030E0B9010E94E81BCB0101
:1023D000918380830F90CF91DF910895DF93CF9306
:1023E000CDB7DEB7E8970FB6F894DEBF0FBECDBF0E
:1023F00082E06FEF0E947B1083E060E041E00E948A
:10240000F90D83E061E041E00E94F90D83E062E0B4
:1024100041E00E94F90D80E090E0A0EFB1E48DABC7
:102420009EABAFABB8AF6DA97EA98FA998AD20E0E8
:1024300030E04AEF54E40E941F02DC01CB0189AB7B
:102440009AABABABBCAB69A97AA98BA99CA920E0DC
:1024500030E040E85FE30E94250488232CF481E00B
:1024600090E098AB8FA73FC069A97AA98BA99CA9D6
:1024700020E03FEF4FE757E40E94C50318164CF5E4
:102480006DA97EA98FA998AD20E030E040E251E42B
:102490000E941F02DC01CB01BC01CD010E9449005A
:1024A000DC01CB0198AB8FA70FC088EC90E09EA712
:1024B0008DA78DA59EA50197F1F79EA78DA78FA546
:1024C00098A9019798AB8FA78FA598A9009769F74E
:1024D00014C069A97AA98BA99CA90E944900DC01B2
:1024E000CB0198AB8FA78FA598A99CA78BA78BA58D
:1024F0009CA50197F1F79CA78BA788E30E94E513A1
:1025000080E090E0A0E8BFE38FA398A7A9A7BAA7AF
:102510006FA178A589A59AA520E030E04AEF54E4A0
:102520000E941F02DC01CB018BA39CA3ADA3BEA321
:102530006BA17CA18DA19EA120E030E040E85FE38B
:102540000E94250488232CF481E090E09AA389A3BB
:102550003FC06BA17CA18DA19EA120E03FEF4FE782
:1025600057E40E94C50318164CF56FA178A589A5FC
:102570009AA520E030E040E251E40E941F02DC0115
:10258000CB01BC01CD010E944900DC01CB019AA323
:1025900089A30FC088EC90E098A38F8F8F8D98A1AE
:1025A0000197F1F798A38F8F89A19AA101979AA318
:1025B00089A389A19AA1009769F714C06BA17CA196
:1025C0008DA19EA10E944900DC01CB019AA389A3A1
:1025D00089A19AA19E8F8D8F8D8D9E8D0197F1F788
:1025E0009E8F8D8F8FE00E94E51380E090E0A0E841
:1025F000BFE3898F9A8FAB8FBC8F698D7A8D8B8D5E
:102600009C8D20E030E04AEF54E40E941F02DC0180
:10261000CB018D8B9E8BAF8BB88F6D897E898F8917
:10262000988D20E030E040E85FE30E942504882395
:102630002CF481E090E09C8B8B8B3FC06D897E8970
:102640008F89988D20E03FEF4FE757E40E94C50344
:1026500018164CF5698D7A8D8B8D9C8D20E030E0BD
:1026600040E251E40E941F02DC01CB01BC01CD011C
:102670000E944900DC01CB019C8B8B8B0FC088EC46
:1026800090E09A8B898B89899A890197F1F79A8BC7
:10269000898B8B899C8901979C8B8B8B8B899C89DF
:1026A000009769F714C06D897E898F89988D0E9483
:1026B0004900DC01CB019C8B8B8B8B899C89988B8F
:1026C0008F878F8598890197F1F7988B8F8781E0A5
:1026D0000E94E51380E090E0A0E0B0E48B879C8747
:1026E000AD87BE876B857C858D859E8520E030E03B
:1026F0004AEF54E40E941F02DC01CB018F839887CC
:10270000A987BA876F81788589859A8520E030E02E
:1027100040E85FE30E94250488232CF481E090E0E8
:102720009E838D833FC06F81788589859A8520E05F
:102730003FEF4FE757E40E94C50318164CF56B8531
:102740007C858D859E8520E030E040E251E40E944A
:102750001F02DC01CB01BC01CD010E944900DC015C
:10276000CB019E838D830FC088EC90E09C838B838C
:102770008B819C810197F1F79C838B838D819E8156
:1027800001979E838D838D819E81009769F714C088
:102790006F81788589859A850E944900DC01CB018B
:1027A0009E838D838D819E819A83898389819A817D
:1027B0000197F1F79A838983E8960FB6F894DEBF04
:1027C0000FBECDBFCF91DF910895DF93CF93CDB7EB
:1027D000DEB72F970FB6F894DEBF0FBECDBF8F8741
:1027E00083E060E040E00E94F90E83E061E040E0B9
:1027F0000E94F90E82E06F850E94BC1083E062E0C7
:1028000041E00E94F90E80E090E0A0E0B0E48B8708
:102810009C87AD87BE876B857C858D859E8520E0F6
:1028200030E04AEF54E40E941F02DC01CB018F83A9
:102830009887A987BA876F81788589859A8520E0EE
:1028400030E040E85FE30E94250488232CF481E017
:1028500090E09E838D833FC06F81788589859A85BE
:1028600020E03FEF4FE757E40E94C50318164CF5F0
:102870006B857C858D859E8520E030E040E251E4CB
:102880000E941F02DC01CB01BC01CD010E94490066
:10289000DC01CB019E838D830FC088EC90E09C838C
:1028A0008B838B819C810197F1F79C838B838D8136
:1028B0009E8101979E838D838D819E81009769F70C
:1028C00014C06F81788589859A850E944900DC0152
:1028D000CB019E838D838D819E819A83898389819B
:1028E0009A810197F1F79A83898383E062E040E05F
:1028F0000E94F90E2F960FB6F894DEBF0FBECDBF23
:10290000CF91DF910895DF93CF93CDB7DEB72F97A7
:102910000FB6F894DEBF0FBECDBF8F8783E060E0B7
:1029200041E00E94F90E83E061E040E00E94F90E70
:1029300082E06F850E94BC1083E062E041E00E946B
:10294000F90E80E090E0A0E0B0E48B879C87AD8733
:10295000BE876B857C858D859E8520E030E04AEFC3
:1029600054E40E941F02DC01CB018F839887A98762
:10297000BA876F81788589859A8520E030E040E8C4
:102980005FE30E94250488232CF481E090E09E837D
:102990008D833FC06F81788589859A8520E03FEFE0
:1029A0004FE757E40E94C50318164CF56B857C85EC
:1029B0008D859E8520E030E040E251E40E941F02B8
:1029C000DC01CB01BC01CD010E944900DC01CB013F
:1029D0009E838D830FC088EC90E09C838B838B81DA
:1029E0009C810197F1F79C838B838D819E81019758
:1029F0009E838D838D819E81009769F714C06F81BE
:102A0000788589859A850E944900DC01CB019E83E7
:102A10008D838D819E819A83898389819A81019793
:102A2000F1F79A83898383E062E040E00E94F90E27
:102A30002F960FB6F894DEBF0FBECDBFCF91DF91BA
:102A40000895DF93CF9300D00F92CDB7DEB79B836D
:102A50008A8319820EC08981282F30E08A819B8168
:102A6000FC01E20FF31F80810E94831489818F5F34
:102A700089838981282F30E08A819B81FC01E20FC4
:102A8000F31F8081882339F70F900F900F90CF911B
:102A9000DF910895DF93CF9300D000D0CDB7DEB79C
:102AA00089836A838981282F30E03C832B838B8143
:102AB0009C818130910531F02B813C8122303105A0
:102AC00031F009C08A8180580E94E51304C08A81D0
:102AD00080540E94E5130F900F900F900F90CF91AC
:102AE000DF910895DF93CF93CDB7DEB72C970FB664
:102AF000F894DEBF0FBECDBF69877A878B879C872E
:102B000081E090E0A0E0B0E08D839E83AF83B88742
:102B100019821A821B821C8289859A85AB85BC85A5
:102B20000097A105B105B1F480E30E9483147AC037
:102B30008D819E81AF81B8852AE030E040E050E091
:102B4000BC01CD010E94C91BDC01CB018D839E839A
:102B5000AF83B88789859A85AB85BC852D813E81F9
:102B60004F815885BC01CD010E94FB1BDA01C901D0
:102B70000097A105B105E1F68D819E81AF81B885F1
:102B80002AE030E040E050E0BC01CD010E94FB1B98
:102B9000DA01C9018D839E83AF83B8873AC08985E6
:102BA0009A85AB85BC852D813E814F815885BC01BE
:102BB000CD010E94FB1BDA01C90189839A83AB8393
:102BC000BC838981805D0E94831489859A85AB8549
:102BD000BC852D813E814F815885BC01CD010E946D
:102BE000FB1BDC01CB0189879A87AB87BC878D8172
:102BF0009E81AF81B8852AE030E040E050E0BC0122
:102C0000CD010E94FB1BDA01C9018D839E83AF8336
:102C1000B8878D819E81AF81B8850097A105B105E8
:102C200009F0BDCF2C960FB6F894DEBF0FBECDBF16
:102C3000CF91DF910895DF93CF93CDB7DEB781E0D9
:102C40006FE00E947B1081E06FEF0E94BC10CF917B
:102C5000DF910895DF93CF93CDB7DEB761970FB6BD
:102C6000F894DEBF0FBECDBF188AC4C08889882FF4
:102C700090E0FC01E050FE4F908181E0692F40E040
:102C80000E94F90E1F86A3C08F85882F90E0FC015B
:102C9000EC5FFD4F908181E0692F0E94F90F88233E
:102CA00009F092C080E090E0A0EAB1E48B879C87B5
:102CB000AD87BE876B857C858D859E8520E030E065
:102CC0004AEF54E40E941F02DC01CB018F839887F6
:102CD000A987BA876F81788589859A8520E030E059
:102CE00040E85FE30E94250488232CF481E090E013
:102CF0009E838D833FC06F81788589859A8520E08A
:102D00003FEF4FE757E40E94C50318164CF56B855B
:102D10007C858D859E8520E030E040E251E40E9474
:102D20001F02DC01CB01BC01CD010E944900DC0186
:102D3000CB019E838D830FC088EC90E09C838B83B6
:102D40008B819C810197F1F79C838B838D819E8180
:102D500001979E838D838D819E81009769F714C0B2
:102D60006F81788589859A850E944900DC01CB01B5
:102D70009E838D838D819E819A83898389819A81A7
:102D80000197F1F79A8389838F85882F90E0FC0162
:102D9000EC5FFD4F908181E0692F0E94F90F88233D
:102DA00099F38889482F50E08F85282F30E0CA0199
:102DB000880F991F880F991F820F931FFC01E85FEE
:102DC000FD4F8081898B1CC08F858F5F8F878F859A
:102DD000843008F459CF8889882F90E0FC01E050B6
:102DE000FE4F908181E0692F41E00E94F90E8889B1
:102DF0008F5F888B8889843008F438CF8FEF898B78
:102E0000898961960FB6F894DEBF0FBECDBFCF9112
:102E1000DF910895DF93CF93CDB7DEB783E066E00F
:102E200041E00E94F90D83E067E041E00E94F90D66
:102E3000CF91DF910895DF93CF93CDB7DEB783E0D5
:102E400066E041E00E94F90E83E067E040E00E9406
:102E5000F90ECF91DF910895DF93CF93CDB7DEB711
:102E600083E066E040E00E94F90E83E067E041E025
:102E70000E94F90ECF91DF910895DF93CF93CDB7E4
:102E8000DEB783E066E040E00E94F90E83E067E091
:102E900040E00E94F90ECF91DF910895DF93CF9328
:102EA000CDB7DEB780E060E040E00E94F90D80E041
:102EB00061E040E00E94F90D80E060E041E00E94A6
:102EC000F90E80E061E041E00E94F90E0E947A1163
:102ED0000E941B160E94EE110E940A17CF91DF91EB
:102EE0000895DF93CF93CDB7DEB72E970FB6F89442
:102EF000DEBF0FBECDBF0E943D1780E00E94CB1108
:102F000010923E0210923D02109238021092390245
:102F100081E00E94E51380E090E0A0E0B0E48B87C0
:102F20009C87AD87BE876B857C858D859E8520E0DF
:102F300030E04AEF54E40E941F02DC01CB018F8392
:102F40009887A987BA876F81788589859A8520E0D7
:102F500030E040E85FE30E94250488232CF481E000
:102F600090E09E838D833FC06F81788589859A85A7
:102F700020E03FEF4FE757E40E94C50318164CF5D9
:102F80006B857C858D859E8520E030E040E251E4B4
:102F90000E941F02DC01CB01BC01CD010E9449004F
:102FA000DC01CB019E838D830FC088EC90E09C8375
:102FB0008B838B819C810197F1F79C838B838D811F
:102FC0009E8101979E838D838D819E81009769F7F5
:102FD00014C06F81788589859A850E944900DC013B
:102FE000CB019E838D838D819E819A838983898184
:102FF0009A810197F1F79A83898381E060E00E94CA
:103000004A1580E690E00E94211582E060E00E946F
:103010004A158FE690E00E94211504C00E942A16EE
:1030200080933A0280913A028F3FC1F32E960FB6F9
:10303000F894DEBF0FBECDBFCF91DF910895DF932F
:10304000CF93CDB7DEB76C970FB6F894DEBF0FBE47
:10305000CDBF81E00E94E51380E090E0A0E0B0E405
:10306000898F9A8FAB8FBC8F698D7A8D8B8D9C8D5C
:1030700020E030E04AEF54E40E941F02DC01CB0163
:103080008D8B9E8BAF8BB88F6D897E898F89988D44
:1030900020E030E040E85FE30E94250488232CF420
:1030A00081E090E09C8B8B8B3FC06D897E898F89FE
:1030B000988D20E03FEF4FE757E40E94C5031816B4
:1030C0004CF5698D7A8D8B8D9C8D20E030E040E24F
:1030D00051E40E941F02DC01CB01BC01CD010E9422
:1030E0004900DC01CB019C8B8B8B0FC088EC90E0FE
:1030F0009A8B898B89899A890197F1F79A8B898BA9
:103100008B899C8901979C8B8B8B8B899C890097E1
:1031100069F714C06D897E898F89988D0E94490056
:10312000DC01CB019C8B8B8B8B899C89988B8F8747
:103130008F8598890197F1F7988B8F8781E060E000
:103140000E944A158DE790E00E9421158AE50E94B1
:10315000CB1110923E0210923D0210923802109252
:103160003B0281E08093390282E060E00E944A15D0
:1031700089E890E00E94211580913902882F90E023
:10318000A0E0B0E0BC01CD010E94721580E090E0AB
:10319000AAE7B4E48B879C87AD87BE876B857C8567
:1031A0008D859E8520E030E04AEF54E40E941F02A6
:1031B000DC01CB018F839887A987BA876F817885D7
:1031C00089859A8520E030E040E85FE30E9425048D
:1031D00088232CF481E090E09E838D833FC06F8133
:1031E000788589859A8520E03FEF4FE757E40E9474
:1031F000C50318164CF56B857C858D859E8520E072
:1032000030E040E251E40E941F02DC01CB01BC012E
:10321000CD010E944900DC01CB019E838D830FC04C
:1032200088EC90E09C838B838B819C810197F1F7E4
:103230009C838B838D819E8101979E838D838D815D
:103240009E81009769F714C06F81788589859A857A
:103250000E944900DC01CB019E838D838D819E817C
:103260009A83898389819A810197F1F79A83898367
:1032700081E060E00E944A1589E990E00E942115F2
:103280006C960FB6F894DEBF0FBECDBFCF91DF9125
:103290000895DF93CF93CDB7DEB79091380282E0E7
:1032A000692F0E944A1580913A02805D0E94831422
:1032B00080913D0290913E029C01220F331FC90173
:1032C000880F991F880F991F280F391F80913A0284
:1032D000882F90E0820F931F90933E0280933D02CF
:1032E000809138028F5F80933802CF91DF910895EB
:1032F000DF93CF93CDB7DEB780913902813009F0EB
:1033000047C080E060E00E94F90F882361F480E00C
:1033100061E00E94F90F882331F486E080933C023B
:103320000E943D1735C080E060E00E94F90F8823BD
:1033300061F080E061E00E94F90F882331F483E0BE
:1033400080933C020E941B1723C080E061E00E9432
:10335000F90F882361F080E060E00E94F90F882374
:1033600031F484E080933C020E942C1711C080E06D
:1033700060E00E94F90F882359F080E061E00E942C
:10338000F90F882329F085E080933C020E943D17C5
:10339000CF91DF910895DF93CF93CDB7DEB7AA9792
:1033A0000FB6F894DEBF0FBECDBF10923E02109252
:1033B0003D028FEF80933A02109239021092380248
:1033C0000E944E170E94711780913A028F3FD1F3ED
:1033D00082E08093390281E00E94E51380E090E072
:1033E000A0E0B0E48FA398A7A9A7BAA76FA178A57A
:1033F00089A59AA520E030E04AEF54E40E941F021C
:10340000DC01CB018BA39CA3ADA3BEA36BA17CA1CC
:103410008DA19EA120E030E040E85FE30E942504FA
:1034200088232CF481E090E09AA389A33FC06BA18C
:103430007CA18DA19EA120E03FEF4FE757E40E94C1
:10344000C50318164CF56FA178A589A59AA520E0AB
:1034500030E040E251E40E941F02DC01CB01BC01DC
:10346000CD010E944900DC01CB019AA389A30FC0C2
:1034700088EC90E098A38F8F8F8D98A10197F1F73A
:1034800098A38F8F89A19AA101979AA389A389A153
:103490009AA1009769F714C06BA17CA18DA19EA190
:1034A0000E944900DC01CB019AA389A389A19AA1BA
:1034B0009E8F8D8F8D8D9E8D0197F1F79E8F8D8FB5
:1034C00087EA90E00E9421155BC10E9478190E9452
:1034D0002A1680933A0280913A028F3F09F450C134
:1034E00080913A028D3309F00CC180913D02909198
:1034F0003E0224E0823D920719F40E941F1840C149
:1035000081E00E94E51380E090E0A0E0B0E4898FC4
:103510009A8FAB8FBC8F698D7A8D8B8D9C8D20E0BF
:1035200030E04AEF54E40E941F02DC01CB018D8B96
:103530009E8BAF8BB88F6D897E898F89988D20E0A7
:1035400030E040E85FE30E94250488232CF481E00A
:1035500090E09C8B8B8B3FC06D897E898F89988D85
:1035600020E03FEF4FE757E40E94C50318164CF5E3
:10357000698D7A8D8B8D9C8D20E030E040E251E4A6
:103580000E941F02DC01CB01BC01CD010E94490059
:10359000DC01CB019C8B8B8B0FC088EC90E09A8B6D
:1035A000898B89899A890197F1F79A8B898B8B8905
:1035B0009C8901979C8B8B8B8B899C89009769F7E1
:1035C00014C06D897E898F89988D0E944900DC0125
:1035D000CB019C8B8B8B8B899C89988B8F878F855C
:1035E00098890197F1F7988B8F8781E060E00E94BE
:1035F0004A1588EB90E00E94211580E090E0AAE750
:10360000B4E48B879C87AD87BE876B857C858D8571
:103610009E8520E030E04AEF54E40E941F02DC0166
:10362000CB018F839887A987BA876F817885898531
:103630009A8520E030E040E85FE30E94250488237B
:103640002CF481E090E09E838D833FC06F8178856C
:1036500089859A8520E03FEF4FE757E40E94C50334
:1036600018164CF56B857C858D859E8520E030E0B5
:1036700040E251E40E941F02DC01CB01BC01CD01FC
:103680000E944900DC01CB019E838D830FC088EC32
:1036900090E09C838B838B819C810197F1F79C83C5
:1036A0008B838D819E8101979E838D838D819E81E9
:1036B000009769F714C06F81788589859A850E9483
:1036C0004900DC01CB019E838D838D819E819A838D
:1036D000898389819A810197F1F79A83898381E0AF
:1036E0000E94E51381E060E00E944A1587EC90E0BB
:1036F0000E94211510923E0210923D021092380253
:103700003FC080913A02833419F40E94711738C087
:1037100080913A028A3018F40E94491931C0809190
:103720003A028B3269F580913C02833041F481E0AA
:103730000E94E51382ED90E00E9421150BC080915C
:103740003C02843039F481E00E94E5138CED90E076
:103750000E94211580913C02863039F481E00E945C
:10376000E5138DEE90E00E94211580913C0285309A
:1037700039F481E00E94E51383EF90E00E94211567
:1037800080913902882309F0A0CE8FEF80933A020E
:1037900019CE629FD001739FF001829FE00DF11D51
:1037A000649FE00DF11D929FF00D839FF00D749FBB
:1037B000F00D659FF00D9927729FB00DE11DF91F67
:1037C000639FB00DE11DF91FBD01CF0111240895C4
:1037D00097FB092E07260AD077FD04D02ED006D0FD
:1037E00000201AF4709561957F4F0895F6F7909533
:1037F00081959F4F0895A1E21A2EAA1BBB1BFD01C4
:103800000DC0AA1FBB1FEE1FFF1FA217B307E407BF
:10381000F50720F0A21BB30BE40BF50B661F771F17
:10382000881F991F1A9469F76095709580959095F7
:103830009B01AC01BD01CF010895AA1BBB1B51E147
:1038400007C0AA1FBB1FA617B70710F0A61BB70B10
:10385000881F991F5A95A9F780959095BC01CD01B5
:1038600008952F923F924F925F926F927F928F9224
:103870009F92AF92BF92CF92DF92EF92FF920F93FF
:103880001F93CF93DF93CDB7DEB7CA1BDB0B0FB609
:10389000F894DEBF0FBECDBF09942A8839884888C6
:1038A0005F846E847D848C849B84AA84B984C8845C
:1038B000DF80EE80FD800C811B81AA81B981CE0F53
:1038C000D11D0FB6F894DEBF0FBECDBFED01089538
:0438D000F894FFCF9A
:1038D400456E74657220416E797468696E67007410
:1038E4006F20456E746572205061737300446F6F6E
:1038F40072204F70656E6564005072657373204367
:1039040020746F20657869740057656C636F6D650A
:103914002C205369722E005072657373203D2074FD
:103924006F20456E7465720057726F6E6720506128
:103934007373776F72640054727920416761696EA2
:103944002100436C6F636B5769736500436F756E39
:10395400746572436C6F636B57697365004572726B
:103964006F720053746F70000000000000000000CC
:103974000001020203030303040404040404040412
:1039840005050505050505050505050505050505E3
:1039940006060606060606060606060606060606C3
:1039A40006060606060606060606060606060606B3
:1039B4000707070707070707070707070707070793
:1039C4000707070707070707070707070707070783
:1039D4000707070707070707070707070707070773
:1039E4000707070707070707070707070707070763
:1039F4000808080808080808080808080808080843
:103A04000808080808080808080808080808080832
:103A14000808080808080808080808080808080822
:103A24000808080808080808080808080808080812
:103A34000808080808080808080808080808080802
:103A440008080808080808080808080808080808F2
:103A540008080808080808080808080808080808E2
:103A640008080808080808080808080808080808D2
:103A740000010203040506070708092F0405062AA6
:083A84000102032D43003D2B5C
:00000001FF
